{
  "contractName": "PGPME",
  "abi": [
    {
      "inputs": [
        {
          "internalType": "address",
          "name": "PolygonME",
          "type": "address"
        }
      ],
      "stateMutability": "nonpayable",
      "type": "constructor"
    },
    {
      "anonymous": false,
      "inputs": [
        {
          "indexed": true,
          "internalType": "address",
          "name": "previousOwner",
          "type": "address"
        },
        {
          "indexed": true,
          "internalType": "address",
          "name": "newOwner",
          "type": "address"
        }
      ],
      "name": "OwnershipTransferred",
      "type": "event"
    },
    {
      "inputs": [
        {
          "internalType": "uint256",
          "name": "",
          "type": "uint256"
        }
      ],
      "name": "_nameToPGP",
      "outputs": [
        {
          "internalType": "string",
          "name": "",
          "type": "string"
        }
      ],
      "stateMutability": "view",
      "type": "function",
      "constant": true
    },
    {
      "inputs": [],
      "name": "gateActive",
      "outputs": [
        {
          "internalType": "bool",
          "name": "",
          "type": "bool"
        }
      ],
      "stateMutability": "view",
      "type": "function",
      "constant": true
    },
    {
      "inputs": [],
      "name": "owner",
      "outputs": [
        {
          "internalType": "address",
          "name": "",
          "type": "address"
        }
      ],
      "stateMutability": "view",
      "type": "function",
      "constant": true
    },
    {
      "inputs": [],
      "name": "renounceOwnership",
      "outputs": [],
      "stateMutability": "nonpayable",
      "type": "function"
    },
    {
      "inputs": [
        {
          "internalType": "address",
          "name": "newOwner",
          "type": "address"
        }
      ],
      "name": "transferOwnership",
      "outputs": [],
      "stateMutability": "nonpayable",
      "type": "function"
    },
    {
      "inputs": [
        {
          "internalType": "address",
          "name": "PolygonME",
          "type": "address"
        }
      ],
      "name": "fixME",
      "outputs": [],
      "stateMutability": "nonpayable",
      "type": "function"
    },
    {
      "inputs": [
        {
          "internalType": "string",
          "name": "_gate",
          "type": "string"
        }
      ],
      "name": "fixGate",
      "outputs": [],
      "stateMutability": "nonpayable",
      "type": "function"
    },
    {
      "inputs": [
        {
          "internalType": "bool",
          "name": "_status",
          "type": "bool"
        }
      ],
      "name": "setGate",
      "outputs": [],
      "stateMutability": "nonpayable",
      "type": "function"
    },
    {
      "inputs": [
        {
          "internalType": "string",
          "name": "_name",
          "type": "string"
        },
        {
          "internalType": "string",
          "name": "_gate",
          "type": "string"
        }
      ],
      "name": "canAdd",
      "outputs": [
        {
          "internalType": "bool",
          "name": "",
          "type": "bool"
        }
      ],
      "stateMutability": "view",
      "type": "function",
      "constant": true
    },
    {
      "inputs": [
        {
          "internalType": "string",
          "name": "_name",
          "type": "string"
        },
        {
          "internalType": "string",
          "name": "_gate",
          "type": "string"
        },
        {
          "internalType": "string",
          "name": "_pgp",
          "type": "string"
        }
      ],
      "name": "addPGP",
      "outputs": [],
      "stateMutability": "nonpayable",
      "type": "function"
    },
    {
      "inputs": [
        {
          "internalType": "string",
          "name": "_name",
          "type": "string"
        },
        {
          "internalType": "string",
          "name": "_gate",
          "type": "string"
        }
      ],
      "name": "returnPGP",
      "outputs": [
        {
          "internalType": "string",
          "name": "",
          "type": "string"
        }
      ],
      "stateMutability": "view",
      "type": "function",
      "constant": true
    }
  ],
  "bytecode": "0x60806040526040518060400160405280600381526020017f64616f00000000000000000000000000000000000000000000000000000000008152506002908051906020019062000051929190620001d4565b506000600360006101000a81548160ff0219169083151502179055503480156200007a57600080fd5b5060405162001c1c38038062001c1c8339818101604052810190620000a09190620002ee565b620000c0620000b46200010860201b60201c565b6200011060201b60201c565b80600160006101000a81548173ffffffffffffffffffffffffffffffffffffffff021916908373ffffffffffffffffffffffffffffffffffffffff1602179055505062000385565b600033905090565b60008060009054906101000a900473ffffffffffffffffffffffffffffffffffffffff169050816000806101000a81548173ffffffffffffffffffffffffffffffffffffffff021916908373ffffffffffffffffffffffffffffffffffffffff1602179055508173ffffffffffffffffffffffffffffffffffffffff168173ffffffffffffffffffffffffffffffffffffffff167f8be0079c531659141344cd1fd0a4f28419497f9722a3daafe3b4186f6b6457e060405160405180910390a35050565b828054620001e2906200034f565b90600052602060002090601f01602090048101928262000206576000855562000252565b82601f106200022157805160ff191683800117855562000252565b8280016001018555821562000252579182015b828111156200025157825182559160200191906001019062000234565b5b50905062000261919062000265565b5090565b5b808211156200028057600081600090555060010162000266565b5090565b600080fd5b600073ffffffffffffffffffffffffffffffffffffffff82169050919050565b6000620002b68262000289565b9050919050565b620002c881620002a9565b8114620002d457600080fd5b50565b600081519050620002e881620002bd565b92915050565b60006020828403121562000307576200030662000284565b5b60006200031784828501620002d7565b91505092915050565b7f4e487b7100000000000000000000000000000000000000000000000000000000600052602260045260246000fd5b600060028204905060018216806200036857607f821691505b602082108114156200037f576200037e62000320565b5b50919050565b61188780620003956000396000f3fe608060405234801561001057600080fd5b50600436106100a95760003560e01c8063a441335f11610071578063a441335f1461012c578063a62294311461015c578063ac9521ea1461018c578063c82a6daf146101a8578063dc5c6e19146101d8578063f2fde38b146101f4576100a9565b806324f98f6f146100ae57806343633ab2146100ca578063715018a6146100e85780638da5cb5b146100f25780639d4559a814610110575b600080fd5b6100c860048036038101906100c39190610dc2565b610210565b005b6100d26102d0565b6040516100df9190610e0a565b60405180910390f35b6100f06102e3565b005b6100fa61036b565b6040516101079190610e34565b60405180910390f35b61012a60048036038101906101259190610e7b565b610394565b005b61014660048036038101906101419190610ede565b61042d565b6040516101539190610fa4565b60405180910390f35b610176600480360381019061017191906110fb565b6104cd565b6040516101839190610e0a565b60405180910390f35b6101a660048036038101906101a19190611173565b610780565b005b6101c260048036038101906101bd91906110fb565b61088f565b6040516101cf9190610fa4565b60405180910390f35b6101f260048036038101906101ed919061121a565b610944565b005b61020e60048036038101906102099190610dc2565b6109da565b005b610218610ad2565b73ffffffffffffffffffffffffffffffffffffffff1661023661036b565b73ffffffffffffffffffffffffffffffffffffffff161461028c576040517f08c379a0000000000000000000000000000000000000000000000000000000008152600401610283906112af565b60405180910390fd5b80600160006101000a81548173ffffffffffffffffffffffffffffffffffffffff021916908373ffffffffffffffffffffffffffffffffffffffff16021790555050565b600360009054906101000a900460ff1681565b6102eb610ad2565b73ffffffffffffffffffffffffffffffffffffffff1661030961036b565b73ffffffffffffffffffffffffffffffffffffffff161461035f576040517f08c379a0000000000000000000000000000000000000000000000000000000008152600401610356906112af565b60405180910390fd5b6103696000610ada565b565b60008060009054906101000a900473ffffffffffffffffffffffffffffffffffffffff16905090565b61039c610ad2565b73ffffffffffffffffffffffffffffffffffffffff166103ba61036b565b73ffffffffffffffffffffffffffffffffffffffff1614610410576040517f08c379a0000000000000000000000000000000000000000000000000000000008152600401610407906112af565b60405180910390fd5b80600360006101000a81548160ff02191690831515021790555050565b6004602052806000526040600020600091509050805461044c906112fe565b80601f0160208091040260200160405190810160405280929190818152602001828054610478906112fe565b80156104c55780601f1061049a576101008083540402835291602001916104c5565b820191906000526020600020905b8154815290600101906020018083116104a857829003601f168201915b505050505081565b600080600160009054906101000a900473ffffffffffffffffffffffffffffffffffffffff1673ffffffffffffffffffffffffffffffffffffffff166370a08231336040518263ffffffff1660e01b815260040161052b9190610e34565b602060405180830381865afa158015610548573d6000803e3d6000fd5b505050506040513d601f19601f8201168201806040525081019061056c9190611345565b9050600081116105b1576040517f08c379a00000000000000000000000000000000000000000000000000000000081526004016105a8906113be565b60405180910390fd5b60011515600360009054906101000a900460ff161515141561065d5760026040516020016105df919061147d565b604051602081830303815290604052805190602001208360405160200161060691906114c5565b604051602081830303815290604052805190602001201461065c576040517f08c379a00000000000000000000000000000000000000000000000000000000081526004016106539061154e565b60405180910390fd5b5b60006106698585610b9e565b90503373ffffffffffffffffffffffffffffffffffffffff16600160009054906101000a900473ffffffffffffffffffffffffffffffffffffffff1673ffffffffffffffffffffffffffffffffffffffff16636352211e836040518263ffffffff1660e01b81526004016106dd919061157d565b602060405180830381865afa1580156106fa573d6000803e3d6000fd5b505050506040513d601f19601f8201168201806040525081019061071e91906115ad565b73ffffffffffffffffffffffffffffffffffffffff1614610774576040517f08c379a000000000000000000000000000000000000000000000000000000000815260040161076b90611626565b60405180910390fd5b60019250505092915050565b61078a83836104cd565b6107c9576040517f08c379a00000000000000000000000000000000000000000000000000000000081526004016107c0906116b8565b60405180910390fd5b600061085f84600280546107dc906112fe565b80601f0160208091040260200160405190810160405280929190818152602001828054610808906112fe565b80156108555780601f1061082a57610100808354040283529160200191610855565b820191906000526020600020905b81548152906001019060200180831161083857829003601f168201915b5050505050610b9e565b905081600460008381526020019081526020016000209080519060200190610888929190610cad565b5050505050565b6060600061089d8484610b9e565b90506004600082815260200190815260200160002080546108bd906112fe565b80601f01602080910402602001604051908101604052809291908181526020018280546108e9906112fe565b80156109365780601f1061090b57610100808354040283529160200191610936565b820191906000526020600020905b81548152906001019060200180831161091957829003601f168201915b505050505091505092915050565b61094c610ad2565b73ffffffffffffffffffffffffffffffffffffffff1661096a61036b565b73ffffffffffffffffffffffffffffffffffffffff16146109c0576040517f08c379a00000000000000000000000000000000000000000000000000000000081526004016109b7906112af565b60405180910390fd5b80600290805190602001906109d6929190610cad565b5050565b6109e2610ad2565b73ffffffffffffffffffffffffffffffffffffffff16610a0061036b565b73ffffffffffffffffffffffffffffffffffffffff1614610a56576040517f08c379a0000000000000000000000000000000000000000000000000000000008152600401610a4d906112af565b60405180910390fd5b600073ffffffffffffffffffffffffffffffffffffffff168173ffffffffffffffffffffffffffffffffffffffff161415610ac6576040517f08c379a0000000000000000000000000000000000000000000000000000000008152600401610abd9061174a565b60405180910390fd5b610acf81610ada565b50565b600033905090565b60008060009054906101000a900473ffffffffffffffffffffffffffffffffffffffff169050816000806101000a81548173ffffffffffffffffffffffffffffffffffffffff021916908373ffffffffffffffffffffffffffffffffffffffff1602179055508173ffffffffffffffffffffffffffffffffffffffff168173ffffffffffffffffffffffffffffffffffffffff167f8be0079c531659141344cd1fd0a4f28419497f9722a3daafe3b4186f6b6457e060405160405180910390a35050565b600080600160009054906101000a900473ffffffffffffffffffffffffffffffffffffffff1673ffffffffffffffffffffffffffffffffffffffff1663a47cf9748585604051602001610bf29291906117b6565b6040516020818303038152906040526040518263ffffffff1660e01b8152600401610c1d9190610fa4565b602060405180830381865afa158015610c3a573d6000803e3d6000fd5b505050506040513d601f19601f82011682018060405250810190610c5e9190611345565b905060008111610ca3576040517f08c379a0000000000000000000000000000000000000000000000000000000008152600401610c9a90611831565b60405180910390fd5b8091505092915050565b828054610cb9906112fe565b90600052602060002090601f016020900481019282610cdb5760008555610d22565b82601f10610cf457805160ff1916838001178555610d22565b82800160010185558215610d22579182015b82811115610d21578251825591602001919060010190610d06565b5b509050610d2f9190610d33565b5090565b5b80821115610d4c576000816000905550600101610d34565b5090565b6000604051905090565b600080fd5b600080fd5b600073ffffffffffffffffffffffffffffffffffffffff82169050919050565b6000610d8f82610d64565b9050919050565b610d9f81610d84565b8114610daa57600080fd5b50565b600081359050610dbc81610d96565b92915050565b600060208284031215610dd857610dd7610d5a565b5b6000610de684828501610dad565b91505092915050565b60008115159050919050565b610e0481610def565b82525050565b6000602082019050610e1f6000830184610dfb565b92915050565b610e2e81610d84565b82525050565b6000602082019050610e496000830184610e25565b92915050565b610e5881610def565b8114610e6357600080fd5b50565b600081359050610e7581610e4f565b92915050565b600060208284031215610e9157610e90610d5a565b5b6000610e9f84828501610e66565b91505092915050565b6000819050919050565b610ebb81610ea8565b8114610ec657600080fd5b50565b600081359050610ed881610eb2565b92915050565b600060208284031215610ef457610ef3610d5a565b5b6000610f0284828501610ec9565b91505092915050565b600081519050919050565b600082825260208201905092915050565b60005b83811015610f45578082015181840152602081019050610f2a565b83811115610f54576000848401525b50505050565b6000601f19601f8301169050919050565b6000610f7682610f0b565b610f808185610f16565b9350610f90818560208601610f27565b610f9981610f5a565b840191505092915050565b60006020820190508181036000830152610fbe8184610f6b565b905092915050565b600080fd5b600080fd5b7f4e487b7100000000000000000000000000000000000000000000000000000000600052604160045260246000fd5b61100882610f5a565b810181811067ffffffffffffffff8211171561102757611026610fd0565b5b80604052505050565b600061103a610d50565b90506110468282610fff565b919050565b600067ffffffffffffffff82111561106657611065610fd0565b5b61106f82610f5a565b9050602081019050919050565b82818337600083830152505050565b600061109e6110998461104b565b611030565b9050828152602081018484840111156110ba576110b9610fcb565b5b6110c584828561107c565b509392505050565b600082601f8301126110e2576110e1610fc6565b5b81356110f284826020860161108b565b91505092915050565b6000806040838503121561111257611111610d5a565b5b600083013567ffffffffffffffff8111156111305761112f610d5f565b5b61113c858286016110cd565b925050602083013567ffffffffffffffff81111561115d5761115c610d5f565b5b611169858286016110cd565b9150509250929050565b60008060006060848603121561118c5761118b610d5a565b5b600084013567ffffffffffffffff8111156111aa576111a9610d5f565b5b6111b6868287016110cd565b935050602084013567ffffffffffffffff8111156111d7576111d6610d5f565b5b6111e3868287016110cd565b925050604084013567ffffffffffffffff81111561120457611203610d5f565b5b611210868287016110cd565b9150509250925092565b6000602082840312156112305761122f610d5a565b5b600082013567ffffffffffffffff81111561124e5761124d610d5f565b5b61125a848285016110cd565b91505092915050565b7f4f776e61626c653a2063616c6c6572206973206e6f7420746865206f776e6572600082015250565b6000611299602083610f16565b91506112a482611263565b602082019050919050565b600060208201905081810360008301526112c88161128c565b9050919050565b7f4e487b7100000000000000000000000000000000000000000000000000000000600052602260045260246000fd5b6000600282049050600182168061131657607f821691505b6020821081141561132a576113296112cf565b5b50919050565b60008151905061133f81610eb2565b92915050565b60006020828403121561135b5761135a610d5a565b5b600061136984828501611330565b91505092915050565b7f5047504d453a204d757374206f776e206174206c65617374206f6e65204d452e600082015250565b60006113a8602083610f16565b91506113b382611372565b602082019050919050565b600060208201905081810360008301526113d78161139b565b9050919050565b600081905092915050565b60008190508160005260206000209050919050565b6000815461140b816112fe565b61141581866113de565b94506001821660008114611430576001811461144157611474565b60ff19831686528186019350611474565b61144a856113e9565b60005b8381101561146c5781548189015260018201915060208101905061144d565b838801955050505b50505092915050565b600061148982846113fe565b915081905092915050565b600061149f82610f0b565b6114a981856113de565b93506114b9818560208601610f27565b80840191505092915050565b60006114d18284611494565b915081905092915050565b7f5047504d453a2053656c6563746564206761746520646f65736e2774206d617460008201527f6368657320676976656e206f6e652e0000000000000000000000000000000000602082015250565b6000611538602f83610f16565b9150611543826114dc565b604082019050919050565b600060208201905081810360008301526115678161152b565b9050919050565b61157781610ea8565b82525050565b6000602082019050611592600083018461156e565b92915050565b6000815190506115a781610d96565b92915050565b6000602082840312156115c3576115c2610d5a565b5b60006115d184828501611598565b91505092915050565b7f5047504d453a20596f75206d757374206f776e2074686174206e616d652e0000600082015250565b6000611610601e83610f16565b915061161b826115da565b602082019050919050565b6000602082019050818103600083015261163f81611603565b9050919050565b7f5047504d453a205365656d7320796f752063616e6e6f7420616464205047502060008201527f746f2074686174206e616d652e00000000000000000000000000000000000000602082015250565b60006116a2602d83610f16565b91506116ad82611646565b604082019050919050565b600060208201905081810360008301526116d181611695565b9050919050565b7f4f776e61626c653a206e6577206f776e657220697320746865207a65726f206160008201527f6464726573730000000000000000000000000000000000000000000000000000602082015250565b6000611734602683610f16565b915061173f826116d8565b604082019050919050565b6000602082019050818103600083015261176381611727565b9050919050565b7f2e00000000000000000000000000000000000000000000000000000000000000600082015250565b60006117a06001836113de565b91506117ab8261176a565b600182019050919050565b60006117c28285611494565b91506117cd82611793565b91506117d98284611494565b91508190509392505050565b7f5047504d453a2054686973206e616d6520646f65736e2774206578697374732e600082015250565b600061181b602083610f16565b9150611826826117e5565b602082019050919050565b6000602082019050818103600083015261184a8161180e565b905091905056fea264697066735822122040219b5ffc21a544432eef7584722382c605233a431dca0a7b4c612cad8979a664736f6c634300080a0033",
  "immutableReferences": {},
  "source": "// SPDX-License-Identifier: MIT\npragma solidity ^0.8.6;\n\nimport \"@openzeppelin/contracts/access/Ownable.sol\";\nimport \"../interfaces/IME.sol\";\n\n/**\n * @title PGPME\n * PGPME - Extending PolygonME with PGP\n */\ncontract PGPME is Ownable {\n\n    IME private _me;\n    string private gate = \"dao\";\n    bool public gateActive = false;\n    mapping(uint256 => string) public _nameToPGP;\n\n    constructor (address PolygonME) {\n        _me = IME(PolygonME);\n    }\n\n    /**\n     * Admin functions to fix base address or gate if needed\n     */\n    function fixME(address PolygonME) public onlyOwner {\n        _me = IME(PolygonME);\n    }\n\n    function fixGate(string memory _gate) public onlyOwner {\n        gate = _gate;\n    }\n\n    function setGate(bool _status) public onlyOwner {\n        gateActive = _status;\n    }\n\n    /**\n     * Internal function to return the tokenId for a specific name\n     */\n    function returnTokenId(string memory _name, string memory _gate) internal view returns (uint256) {\n        uint256 tknId = _me._nameToTokenId(string(abi.encodePacked(_name, '.', _gate)));\n        require(tknId > 0, \"PGPME: This name doesn't exists.\");\n        return tknId;\n    }\n\n    /**\n     * Check if sender can add or not a PGP key\n     */\n    function canAdd(string memory _name, string memory _gate) public view returns (bool) {\n        uint256 bal = _me.balanceOf(msg.sender);\n        require(bal > 0, \"PGPME: Must own at least one ME.\");\n        if(gateActive == true) {\n            require(keccak256(abi.encodePacked(_gate)) == keccak256(abi.encodePacked(gate)), \"PGPME: Selected gate doesn't matches given one.\");\n        }\n        uint256 tknId = returnTokenId(_name, _gate);\n        require(_me.ownerOf(tknId) == msg.sender, \"PGPME: You must own that name.\");\n        return true;\n    }\n\n    /**\n     * Add PGP for specific name\n     */\n    function addPGP(string memory _name, string memory _gate, string memory _pgp) public {\n        require(canAdd(_name, _gate), \"PGPME: Seems you cannot add PGP to that name.\");\n        uint256 tknId = returnTokenId(_name, gate);\n        _nameToPGP[tknId] = _pgp;\n    }\n\n    /**\n     * Get PGP for specific name\n     */\n    function returnPGP(string memory _name, string memory _gate) public view returns (string memory) {\n        uint256 tknId = returnTokenId(_name, _gate);\n        return _nameToPGP[tknId];\n    }\n}\n",
  "sourcePath": "/home/turinglabs/GIT/TURINGLABSORG/polygonme-pgp/contracts/PGPME.sol",
  "compiler": {
    "name": "solc",
    "version": "0.8.10+commit.fc410830.Emscripten.clang"
  },
  "schemaVersion": "3.3.4",
  "updatedAt": "2021-11-17T05:04:48.297Z",
  "networkType": "ethereum",
  "devdoc": {
    "kind": "dev",
    "methods": {
      "owner()": {
        "details": "Returns the address of the current owner."
      },
      "renounceOwnership()": {
        "details": "Leaves the contract without owner. It will not be possible to call `onlyOwner` functions anymore. Can only be called by the current owner. NOTE: Renouncing ownership will leave the contract without an owner, thereby removing any functionality that is only available to the owner."
      },
      "transferOwnership(address)": {
        "details": "Transfers ownership of the contract to a new account (`newOwner`). Can only be called by the current owner."
      }
    },
    "title": "PGPME PGPME - Extending PolygonME with PGP",
    "version": 1
  },
  "userdoc": {
    "kind": "user",
    "methods": {
      "addPGP(string,string,string)": {
        "notice": "Add PGP for specific name"
      },
      "canAdd(string,string)": {
        "notice": "Check if sender can add or not a PGP key"
      },
      "fixME(address)": {
        "notice": "Admin functions to fix base address or gate if needed"
      },
      "returnPGP(string,string)": {
        "notice": "Get PGP for specific name"
      }
    },
    "version": 1
  }
}